{
  "contractName": "ContractorsChain",
  "abi": [
    {
      "inputs": [],
      "payable": false,
      "stateMutability": "nonpayable",
      "type": "constructor"
    },
    {
      "anonymous": false,
      "inputs": [
        {
          "indexed": false,
          "internalType": "uint256",
          "name": "id",
          "type": "uint256"
        },
        {
          "indexed": false,
          "internalType": "string",
          "name": "name",
          "type": "string"
        }
      ],
      "name": "ContractorCreated",
      "type": "event"
    },
    {
      "anonymous": false,
      "inputs": [
        {
          "indexed": false,
          "internalType": "uint256",
          "name": "id",
          "type": "uint256"
        },
        {
          "indexed": false,
          "internalType": "string",
          "name": "name",
          "type": "string"
        },
        {
          "indexed": false,
          "internalType": "string",
          "name": "status",
          "type": "string"
        }
      ],
      "name": "ContractorUpdated",
      "type": "event"
    },
    {
      "constant": true,
      "inputs": [],
      "name": "contractorCount",
      "outputs": [
        {
          "internalType": "uint256",
          "name": "",
          "type": "uint256"
        }
      ],
      "payable": false,
      "stateMutability": "view",
      "type": "function"
    },
    {
      "constant": true,
      "inputs": [
        {
          "internalType": "uint256",
          "name": "",
          "type": "uint256"
        }
      ],
      "name": "contractors",
      "outputs": [
        {
          "internalType": "uint256",
          "name": "id",
          "type": "uint256"
        },
        {
          "internalType": "string",
          "name": "name",
          "type": "string"
        },
        {
          "internalType": "string",
          "name": "phoneNumber",
          "type": "string"
        },
        {
          "internalType": "string",
          "name": "email",
          "type": "string"
        },
        {
          "internalType": "string",
          "name": "licenseNo",
          "type": "string"
        },
        {
          "internalType": "string",
          "name": "addressLines",
          "type": "string"
        },
        {
          "internalType": "string",
          "name": "status",
          "type": "string"
        }
      ],
      "payable": false,
      "stateMutability": "view",
      "type": "function"
    },
    {
      "constant": true,
      "inputs": [],
      "name": "userCount",
      "outputs": [
        {
          "internalType": "uint256",
          "name": "",
          "type": "uint256"
        }
      ],
      "payable": false,
      "stateMutability": "view",
      "type": "function"
    },
    {
      "constant": true,
      "inputs": [
        {
          "internalType": "string",
          "name": "",
          "type": "string"
        }
      ],
      "name": "userMap",
      "outputs": [
        {
          "internalType": "uint256",
          "name": "id",
          "type": "uint256"
        },
        {
          "internalType": "string",
          "name": "userType",
          "type": "string"
        }
      ],
      "payable": false,
      "stateMutability": "view",
      "type": "function"
    },
    {
      "constant": true,
      "inputs": [
        {
          "internalType": "uint256",
          "name": "",
          "type": "uint256"
        }
      ],
      "name": "users",
      "outputs": [
        {
          "internalType": "uint256",
          "name": "id",
          "type": "uint256"
        },
        {
          "internalType": "string",
          "name": "name",
          "type": "string"
        },
        {
          "internalType": "string",
          "name": "phoneNumber",
          "type": "string"
        },
        {
          "internalType": "string",
          "name": "email",
          "type": "string"
        }
      ],
      "payable": false,
      "stateMutability": "view",
      "type": "function"
    },
    {
      "constant": false,
      "inputs": [
        {
          "internalType": "string",
          "name": "_uid",
          "type": "string"
        },
        {
          "internalType": "string",
          "name": "_name",
          "type": "string"
        },
        {
          "internalType": "string",
          "name": "_phoneNumber",
          "type": "string"
        },
        {
          "internalType": "string",
          "name": "_email",
          "type": "string"
        },
        {
          "internalType": "string",
          "name": "_licenseNo",
          "type": "string"
        },
        {
          "internalType": "string",
          "name": "_addressLines",
          "type": "string"
        }
      ],
      "name": "createContractor",
      "outputs": [],
      "payable": false,
      "stateMutability": "nonpayable",
      "type": "function"
    },
    {
      "constant": false,
      "inputs": [
        {
          "internalType": "string",
          "name": "_uid",
          "type": "string"
        },
        {
          "internalType": "string",
          "name": "_name",
          "type": "string"
        },
        {
          "internalType": "string",
          "name": "_phoneNumber",
          "type": "string"
        },
        {
          "internalType": "string",
          "name": "_email",
          "type": "string"
        }
      ],
      "name": "createUser",
      "outputs": [],
      "payable": false,
      "stateMutability": "nonpayable",
      "type": "function"
    },
    {
      "constant": false,
      "inputs": [
        {
          "internalType": "uint256",
          "name": "_id",
          "type": "uint256"
        }
      ],
      "name": "approve",
      "outputs": [],
      "payable": false,
      "stateMutability": "nonpayable",
      "type": "function"
    },
    {
      "constant": false,
      "inputs": [
        {
          "internalType": "uint256",
          "name": "_id",
          "type": "uint256"
        }
      ],
      "name": "reject",
      "outputs": [],
      "payable": false,
      "stateMutability": "nonpayable",
      "type": "function"
    }
  ],
  "bytecode": "0x60806040526000805560006001553480156200001a57600080fd5b506200016f6040518060400160405280601c81526020017f7637614e7a6d41366662657a73587037424450706f794b5052554132000000008152506040518060400160405280600681526020017f53616368696e00000000000000000000000000000000000000000000000000008152506040518060400160405280600a81526020017f39393933333332323231000000000000000000000000000000000000000000008152506040518060400160405280600f81526020017f736f6d657468696e6740672e636f6d00000000000000000000000000000000008152506040518060400160405280600981526020017f58314343563131324e00000000000000000000000000000000000000000000008152506040518060400160405280601181526020017f54726976616e6472756d2c4b6572616c610000000000000000000000000000008152506200017560201b60201c565b62000510565b6001600081548092919060010191905055506040518060e0016040528060015481526020018681526020018581526020018481526020018381526020018281526020016040518060400160405280600881526020017f617070726f7665640000000000000000000000000000000000000000000000008152508152506002600060015481526020019081526020016000206000820151816000015560208201518160010190805190602001906200022e92919062000461565b5060408201518160020190805190602001906200024d92919062000461565b5060608201518160030190805190602001906200026c92919062000461565b5060808201518160040190805190602001906200028b92919062000461565b5060a0820151816005019080519060200190620002aa92919062000461565b5060c0820151816006019080519060200190620002c992919062000461565b50905050604051806040016040528060015481526020016040518060400160405280600a81526020017f636f6e74726163746f72000000000000000000000000000000000000000000008152508152506004876040518082805190602001908083835b602083106200035157805182526020820191506020810190506020830392506200032c565b6001836020036101000a0380198251168184511680821785525050505050509050019150509081526020016040518091039020600082015181600001556020820151816001019080519060200190620003ac92919062000461565b509050507fae35c51576253c2c107585feea6f1fea0d60fe8d1bcb9300241011b3bc06b029600154866040518083815260200180602001828103825283818151815260200191508051906020019080838360005b838110156200041d57808201518184015260208101905062000400565b50505050905090810190601f1680156200044b5780820380516001836020036101000a031916815260200191505b50935050505060405180910390a1505050505050565b828054600181600116156101000203166002900490600052602060002090601f016020900481019282601f10620004a457805160ff1916838001178555620004d5565b82800160010185558215620004d5579182015b82811115620004d4578251825591602001919060010190620004b7565b5b509050620004e49190620004e8565b5090565b6200050d91905b8082111562000509576000816000905550600101620004ef565b5090565b90565b611d0580620005206000396000f3fe608060405234801561001057600080fd5b50600436106100935760003560e01c8063365b98b211610066578063365b98b21461074c5780636f7fcddb146108d2578063b759f95414610b52578063b8adaa1114610b80578063eb15f38014610bae57610093565b806307973ccf1461009857806325ab5ad8146100b657806326e76335146100d45780633481a95a14610482575b600080fd5b6100a0610ce9565b6040518082815260200191505060405180910390f35b6100be610cef565b6040518082815260200191505060405180910390f35b610480600480360360c08110156100ea57600080fd5b810190808035906020019064010000000081111561010757600080fd5b82018360208201111561011957600080fd5b8035906020019184600183028401116401000000008311171561013b57600080fd5b91908080601f016020809104026020016040519081016040528093929190818152602001838380828437600081840152601f19601f8201169050808301925050505050505091929192908035906020019064010000000081111561019e57600080fd5b8201836020820111156101b057600080fd5b803590602001918460018302840111640100000000831117156101d257600080fd5b91908080601f016020809104026020016040519081016040528093929190818152602001838380828437600081840152601f19601f8201169050808301925050505050505091929192908035906020019064010000000081111561023557600080fd5b82018360208201111561024757600080fd5b8035906020019184600183028401116401000000008311171561026957600080fd5b91908080601f016020809104026020016040519081016040528093929190818152602001838380828437600081840152601f19601f820116905080830192505050505050509192919290803590602001906401000000008111156102cc57600080fd5b8201836020820111156102de57600080fd5b8035906020019184600183028401116401000000008311171561030057600080fd5b91908080601f016020809104026020016040519081016040528093929190818152602001838380828437600081840152601f19601f8201169050808301925050505050505091929192908035906020019064010000000081111561036357600080fd5b82018360208201111561037557600080fd5b8035906020019184600183028401116401000000008311171561039757600080fd5b91908080601f016020809104026020016040519081016040528093929190818152602001838380828437600081840152601f19601f820116905080830192505050505050509192919290803590602001906401000000008111156103fa57600080fd5b82018360208201111561040c57600080fd5b8035906020019184600183028401116401000000008311171561042e57600080fd5b91908080601f016020809104026020016040519081016040528093929190818152602001838380828437600081840152601f19601f820116905080830192505050505050509192919290505050610cf5565b005b6104ae6004803603602081101561049857600080fd5b8101908080359060200190929190505050610fce565b6040518088815260200180602001806020018060200180602001806020018060200187810387528d818151815260200191508051906020019080838360005b838110156105085780820151818401526020810190506104ed565b50505050905090810190601f1680156105355780820380516001836020036101000a031916815260200191505b5087810386528c818151815260200191508051906020019080838360005b8381101561056e578082015181840152602081019050610553565b50505050905090810190601f16801561059b5780820380516001836020036101000a031916815260200191505b5087810385528b818151815260200191508051906020019080838360005b838110156105d45780820151818401526020810190506105b9565b50505050905090810190601f1680156106015780820380516001836020036101000a031916815260200191505b5087810384528a818151815260200191508051906020019080838360005b8381101561063a57808201518184015260208101905061061f565b50505050905090810190601f1680156106675780820380516001836020036101000a031916815260200191505b50878103835289818151815260200191508051906020019080838360005b838110156106a0578082015181840152602081019050610685565b50505050905090810190601f1680156106cd5780820380516001836020036101000a031916815260200191505b50878103825288818151815260200191508051906020019080838360005b838110156107065780820151818401526020810190506106eb565b50505050905090810190601f1680156107335780820380516001836020036101000a031916815260200191505b509d505050505050505050505050505060405180910390f35b6107786004803603602081101561076257600080fd5b81019080803590602001909291905050506113a0565b60405180858152602001806020018060200180602001848103845287818151815260200191508051906020019080838360005b838110156107c65780820151818401526020810190506107ab565b50505050905090810190601f1680156107f35780820380516001836020036101000a031916815260200191505b50848103835286818151815260200191508051906020019080838360005b8381101561082c578082015181840152602081019050610811565b50505050905090810190601f1680156108595780820380516001836020036101000a031916815260200191505b50848103825285818151815260200191508051906020019080838360005b83811015610892578082015181840152602081019050610877565b50505050905090810190601f1680156108bf5780820380516001836020036101000a031916815260200191505b5097505050505050505060405180910390f35b610b50600480360360808110156108e857600080fd5b810190808035906020019064010000000081111561090557600080fd5b82018360208201111561091757600080fd5b8035906020019184600183028401116401000000008311171561093957600080fd5b91908080601f016020809104026020016040519081016040528093929190818152602001838380828437600081840152601f19601f8201169050808301925050505050505091929192908035906020019064010000000081111561099c57600080fd5b8201836020820111156109ae57600080fd5b803590602001918460018302840111640100000000831117156109d057600080fd5b91908080601f016020809104026020016040519081016040528093929190818152602001838380828437600081840152601f19601f82011690508083019250505050505050919291929080359060200190640100000000811115610a3357600080fd5b820183602082011115610a4557600080fd5b80359060200191846001830284011164010000000083111715610a6757600080fd5b91908080601f016020809104026020016040519081016040528093929190818152602001838380828437600081840152601f19601f82011690508083019250505050505050919291929080359060200190640100000000811115610aca57600080fd5b820183602082011115610adc57600080fd5b80359060200191846001830284011164010000000083111715610afe57600080fd5b91908080601f016020809104026020016040519081016040528093929190818152602001838380828437600081840152601f19601f820116905080830192505050505050509192919290505050611598565b005b610b7e60048036036020811015610b6857600080fd5b8101908080359060200190929190505050611729565b005b610bac60048036036020811015610b9657600080fd5b8101908080359060200190929190505050611901565b005b610c6760048036036020811015610bc457600080fd5b8101908080359060200190640100000000811115610be157600080fd5b820183602082011115610bf357600080fd5b80359060200191846001830284011164010000000083111715610c1557600080fd5b91908080601f016020809104026020016040519081016040528093929190818152602001838380828437600081840152601f19601f820116905080830192505050505050509192919290505050611ad9565b6040518083815260200180602001828103825283818151815260200191508051906020019080838360005b83811015610cad578082015181840152602081019050610c92565b50505050905090810190601f168015610cda5780820380516001836020036101000a031916815260200191505b50935050505060405180910390f35b60005481565b60015481565b6001600081548092919060010191905055506040518060e0016040528060015481526020018681526020018581526020018481526020018381526020018281526020016040518060400160405280600881526020017f617070726f766564000000000000000000000000000000000000000000000000815250815250600260006001548152602001908152602001600020600082015181600001556020820151816001019080519060200190610dac929190611bab565b506040820151816002019080519060200190610dc9929190611bab565b506060820151816003019080519060200190610de6929190611bab565b506080820151816004019080519060200190610e03929190611bab565b5060a0820151816005019080519060200190610e20929190611bab565b5060c0820151816006019080519060200190610e3d929190611bab565b50905050604051806040016040528060015481526020016040518060400160405280600a81526020017f636f6e74726163746f72000000000000000000000000000000000000000000008152508152506004876040518082805190602001908083835b60208310610ec35780518252602082019150602081019050602083039250610ea0565b6001836020036101000a0380198251168184511680821785525050505050509050019150509081526020016040518091039020600082015181600001556020820151816001019080519060200190610f1c929190611bab565b509050507fae35c51576253c2c107585feea6f1fea0d60fe8d1bcb9300241011b3bc06b029600154866040518083815260200180602001828103825283818151815260200191508051906020019080838360005b83811015610f8b578082015181840152602081019050610f70565b50505050905090810190601f168015610fb85780820380516001836020036101000a031916815260200191505b50935050505060405180910390a1505050505050565b6002602052806000526040600020600091509050806000015490806001018054600181600116156101000203166002900480601f0160208091040260200160405190810160405280929190818152602001828054600181600116156101000203166002900480156110805780601f1061105557610100808354040283529160200191611080565b820191906000526020600020905b81548152906001019060200180831161106357829003601f168201915b505050505090806002018054600181600116156101000203166002900480601f01602080910402602001604051908101604052809291908181526020018280546001816001161561010002031660029004801561111e5780601f106110f35761010080835404028352916020019161111e565b820191906000526020600020905b81548152906001019060200180831161110157829003601f168201915b505050505090806003018054600181600116156101000203166002900480601f0160208091040260200160405190810160405280929190818152602001828054600181600116156101000203166002900480156111bc5780601f10611191576101008083540402835291602001916111bc565b820191906000526020600020905b81548152906001019060200180831161119f57829003601f168201915b505050505090806004018054600181600116156101000203166002900480601f01602080910402602001604051908101604052809291908181526020018280546001816001161561010002031660029004801561125a5780601f1061122f5761010080835404028352916020019161125a565b820191906000526020600020905b81548152906001019060200180831161123d57829003601f168201915b505050505090806005018054600181600116156101000203166002900480601f0160208091040260200160405190810160405280929190818152602001828054600181600116156101000203166002900480156112f85780601f106112cd576101008083540402835291602001916112f8565b820191906000526020600020905b8154815290600101906020018083116112db57829003601f168201915b505050505090806006018054600181600116156101000203166002900480601f0160208091040260200160405190810160405280929190818152602001828054600181600116156101000203166002900480156113965780601f1061136b57610100808354040283529160200191611396565b820191906000526020600020905b81548152906001019060200180831161137957829003601f168201915b5050505050905087565b6003602052806000526040600020600091509050806000015490806001018054600181600116156101000203166002900480601f0160208091040260200160405190810160405280929190818152602001828054600181600116156101000203166002900480156114525780601f1061142757610100808354040283529160200191611452565b820191906000526020600020905b81548152906001019060200180831161143557829003601f168201915b505050505090806002018054600181600116156101000203166002900480601f0160208091040260200160405190810160405280929190818152602001828054600181600116156101000203166002900480156114f05780601f106114c5576101008083540402835291602001916114f0565b820191906000526020600020905b8154815290600101906020018083116114d357829003601f168201915b505050505090806003018054600181600116156101000203166002900480601f01602080910402602001604051908101604052809291908181526020018280546001816001161561010002031660029004801561158e5780601f106115635761010080835404028352916020019161158e565b820191906000526020600020905b81548152906001019060200180831161157157829003601f168201915b5050505050905084565b600080815480929190600101919050555060405180608001604052806000548152602001848152602001838152602001828152506003600080548152602001908152602001600020600082015181600001556020820151816001019080519060200190611606929190611bab565b506040820151816002019080519060200190611623929190611bab565b506060820151816003019080519060200190611640929190611bab565b50905050604051806040016040528060005481526020016040518060400160405280600481526020017f75736572000000000000000000000000000000000000000000000000000000008152508152506004856040518082805190602001908083835b602083106116c657805182526020820191506020810190506020830392506116a3565b6001836020036101000a038019825116818451168082178552505050505050905001915050908152602001604051809103902060008201518160000155602082015181600101908051906020019061171f929190611bab565b5090505050505050565b6040518060400160405280600881526020017f617070726f766564000000000000000000000000000000000000000000000000815250600260008381526020019081526020016000206006019080519060200190611788929190611c2b565b507fae607bb2e39858e386dc375df4f233ee9ba0119253c2c0cfa326879613a655e181600260008481526020019081526020016000206001016002600085815260200190815260200160002060060160405180848152602001806020018060200183810383528581815460018160011615610100020316600290048152602001915080546001816001161561010002031660029004801561186a5780601f1061183f5761010080835404028352916020019161186a565b820191906000526020600020905b81548152906001019060200180831161184d57829003601f168201915b50508381038252848181546001816001161561010002031660029004815260200191508054600181600116156101000203166002900480156118ed5780601f106118c2576101008083540402835291602001916118ed565b820191906000526020600020905b8154815290600101906020018083116118d057829003601f168201915b50509550505050505060405180910390a150565b6040518060400160405280600881526020017f72656a6563746564000000000000000000000000000000000000000000000000815250600260008381526020019081526020016000206006019080519060200190611960929190611c2b565b507fae607bb2e39858e386dc375df4f233ee9ba0119253c2c0cfa326879613a655e1816002600084815260200190815260200160002060010160026000858152602001908152602001600020600601604051808481526020018060200180602001838103835285818154600181600116156101000203166002900481526020019150805460018160011615610100020316600290048015611a425780601f10611a1757610100808354040283529160200191611a42565b820191906000526020600020905b815481529060010190602001808311611a2557829003601f168201915b5050838103825284818154600181600116156101000203166002900481526020019150805460018160011615610100020316600290048015611ac55780601f10611a9a57610100808354040283529160200191611ac5565b820191906000526020600020905b815481529060010190602001808311611aa857829003601f168201915b50509550505050505060405180910390a150565b600481805160208101820180518482526020830160208501208183528095505050505050600091509050806000015490806001018054600181600116156101000203166002900480601f016020809104026020016040519081016040528092919081815260200182805460018160011615610100020316600290048015611ba15780601f10611b7657610100808354040283529160200191611ba1565b820191906000526020600020905b815481529060010190602001808311611b8457829003601f168201915b5050505050905082565b828054600181600116156101000203166002900490600052602060002090601f016020900481019282601f10611bec57805160ff1916838001178555611c1a565b82800160010185558215611c1a579182015b82811115611c19578251825591602001919060010190611bfe565b5b509050611c279190611cab565b5090565b828054600181600116156101000203166002900490600052602060002090601f016020900481019282601f10611c6c57805160ff1916838001178555611c9a565b82800160010185558215611c9a579182015b82811115611c99578251825591602001919060010190611c7e565b5b509050611ca79190611cab565b5090565b611ccd91905b80821115611cc9576000816000905550600101611cb1565b5090565b9056fea265627a7a7231582093f82c4288fb95bdc99a0527b78f588e20123b058fdaf25e838ca1159fd3499a64736f6c63430005100032",
  "source": "pragma solidity >=0.4.21 <0.7.0;\r\n\r\ncontract ContractorsChain {\r\n    uint256 public userCount = 0;\r\n    uint256 public contractorCount = 0;\r\n\r\n    struct Contractor {\r\n        uint256 id;\r\n        string name;\r\n        string phoneNumber;\r\n        string email;\r\n        string licenseNo;\r\n        string addressLines;\r\n        string status;\r\n    }\r\n\r\n    struct User {\r\n        uint256 id;\r\n        string name;\r\n        string phoneNumber;\r\n        string email;\r\n    }\r\n\r\n    struct UidMap {\r\n        uint256 id;\r\n        string userType;\r\n    }\r\n\r\n    mapping(uint256 => Contractor) public contractors;\r\n    mapping(uint256 => User) public users;\r\n    mapping(string => UidMap) public userMap;\r\n\r\n    event ContractorCreated(uint256 id, string name);\r\n    event ContractorUpdated(uint256 id, string name, string status);\r\n\r\n    constructor() public {\r\n        createContractor(\r\n            \"v7aNzmA6fbezsXp7BDPpoyKPRUA2\",\r\n            \"Sachin\",\r\n            \"9993332221\",\r\n            \"something@g.com\",\r\n            \"X1CCV112N\",\r\n            \"Trivandrum,Kerala\"\r\n        );\r\n    }\r\n\r\n    function createContractor(\r\n        string memory _uid,\r\n        string memory _name,\r\n        string memory _phoneNumber,\r\n        string memory _email,\r\n        string memory _licenseNo,\r\n        string memory _addressLines\r\n    ) public {\r\n        contractorCount++;\r\n        contractors[contractorCount] = Contractor(\r\n            contractorCount,\r\n            _name,\r\n            _phoneNumber,\r\n            _email,\r\n            _licenseNo,\r\n            _addressLines,\r\n            \"approved\"\r\n        );\r\n        userMap[_uid] = UidMap(contractorCount, \"contractor\");\r\n\r\n        emit ContractorCreated(contractorCount, _name);\r\n    }\r\n\r\n    function createUser(\r\n        string memory _uid,\r\n        string memory _name,\r\n        string memory _phoneNumber,\r\n        string memory _email\r\n    ) public {\r\n        userCount++;\r\n        users[userCount] = User(userCount, _name, _phoneNumber, _email);\r\n        userMap[_uid] = UidMap(userCount, \"user\");\r\n    }\r\n\r\n    function approve(uint256 _id) public {\r\n        contractors[_id].status = \"approved\";\r\n\r\n        emit ContractorUpdated(\r\n            _id,\r\n            contractors[_id].name,\r\n            contractors[_id].status\r\n        );\r\n    }\r\n\r\n    function reject(uint256 _id) public {\r\n        contractors[_id].status = \"rejected\";\r\n\r\n        emit ContractorUpdated(\r\n            _id,\r\n            contractors[_id].name,\r\n            contractors[_id].status\r\n        );\r\n    }\r\n}\r\n",
  "sourcePath": "E:\\projs\\mine\\st_projects\\govt-chains\\app\\truffle\\contracts\\ContractorsChain.sol",
  "compiler": {
    "name": "solc",
    "version": "0.5.16+commit.9c3226ce.Emscripten.clang"
  },
  "schemaVersion": "3.0.23",
  "updatedAt": "2020-07-27T06:10:47.422Z",
  "networkType": "ethereum",
  "devdoc": {
    "methods": {}
  },
  "userdoc": {
    "methods": {}
  }
}