{
  "contractName": "GovtsChain",
  "abi": [
    {
      "inputs": [],
      "payable": false,
      "stateMutability": "nonpayable",
      "type": "constructor"
    },
    {
      "anonymous": false,
      "inputs": [
        {
          "indexed": false,
          "internalType": "uint256",
          "name": "id",
          "type": "uint256"
        },
        {
          "indexed": false,
          "internalType": "string",
          "name": "name",
          "type": "string"
        },
        {
          "indexed": false,
          "internalType": "string",
          "name": "description",
          "type": "string"
        }
      ],
      "name": "ProjectCreated",
      "type": "event"
    },
    {
      "anonymous": false,
      "inputs": [
        {
          "indexed": false,
          "internalType": "uint256",
          "name": "id",
          "type": "uint256"
        },
        {
          "indexed": false,
          "internalType": "uint256",
          "name": "projectId",
          "type": "uint256"
        },
        {
          "indexed": false,
          "internalType": "string",
          "name": "projectName",
          "type": "string"
        }
      ],
      "name": "QuotationCreated",
      "type": "event"
    },
    {
      "constant": true,
      "inputs": [
        {
          "internalType": "uint256",
          "name": "",
          "type": "uint256"
        }
      ],
      "name": "projects",
      "outputs": [
        {
          "internalType": "uint256",
          "name": "id",
          "type": "uint256"
        },
        {
          "internalType": "string",
          "name": "name",
          "type": "string"
        },
        {
          "internalType": "string",
          "name": "description",
          "type": "string"
        },
        {
          "internalType": "string",
          "name": "fund",
          "type": "string"
        },
        {
          "internalType": "string",
          "name": "status",
          "type": "string"
        },
        {
          "internalType": "uint256",
          "name": "quotationId",
          "type": "uint256"
        },
        {
          "internalType": "uint256",
          "name": "quotationsCount",
          "type": "uint256"
        }
      ],
      "payable": false,
      "stateMutability": "view",
      "type": "function"
    },
    {
      "constant": true,
      "inputs": [],
      "name": "projectsCount",
      "outputs": [
        {
          "internalType": "uint256",
          "name": "",
          "type": "uint256"
        }
      ],
      "payable": false,
      "stateMutability": "view",
      "type": "function"
    },
    {
      "constant": true,
      "inputs": [
        {
          "internalType": "uint256",
          "name": "",
          "type": "uint256"
        }
      ],
      "name": "quotations",
      "outputs": [
        {
          "internalType": "uint256",
          "name": "id",
          "type": "uint256"
        },
        {
          "internalType": "uint256",
          "name": "projectId",
          "type": "uint256"
        },
        {
          "internalType": "string",
          "name": "projectName",
          "type": "string"
        },
        {
          "internalType": "string",
          "name": "status",
          "type": "string"
        }
      ],
      "payable": false,
      "stateMutability": "view",
      "type": "function"
    },
    {
      "constant": true,
      "inputs": [],
      "name": "quotationsCount",
      "outputs": [
        {
          "internalType": "uint256",
          "name": "",
          "type": "uint256"
        }
      ],
      "payable": false,
      "stateMutability": "view",
      "type": "function"
    },
    {
      "constant": false,
      "inputs": [
        {
          "internalType": "string",
          "name": "_name",
          "type": "string"
        },
        {
          "internalType": "string",
          "name": "_description",
          "type": "string"
        },
        {
          "internalType": "string",
          "name": "_fund",
          "type": "string"
        }
      ],
      "name": "createProject",
      "outputs": [],
      "payable": false,
      "stateMutability": "nonpayable",
      "type": "function"
    },
    {
      "constant": false,
      "inputs": [
        {
          "internalType": "uint256",
          "name": "_projectId",
          "type": "uint256"
        },
        {
          "internalType": "string",
          "name": "_projectName",
          "type": "string"
        }
      ],
      "name": "createQuotation",
      "outputs": [],
      "payable": false,
      "stateMutability": "nonpayable",
      "type": "function"
    }
  ],
  "bytecode": "0x60806040526000805560006001553480156200001a57600080fd5b50620000cd6040518060400160405280600c81526020017f50726f6a656374206e616d6500000000000000000000000000000000000000008152506040518060400160405280601481526020017f496e697469616c20746573742070726f6a6563740000000000000000000000008152506040518060400160405280600681526020017f46756e6420310000000000000000000000000000000000000000000000000000815250620000d360201b60201c565b620003ce565b60008081548092919060010191905055506040518060e0016040528060005481526020018481526020018381526020018281526020016040518060400160405280600381526020017f6e65770000000000000000000000000000000000000000000000000000000000815250815260200160008152602001600081525060026000805481526020019081526020016000206000820151816000015560208201518160010190805190602001906200018c9291906200031f565b506040820151816002019080519060200190620001ab9291906200031f565b506060820151816003019080519060200190620001ca9291906200031f565b506080820151816004019080519060200190620001e99291906200031f565b5060a0820151816005015560c082015181600601559050507fadcf8647c0412b41191550bea7144aee81f4771fab561d85a968b7d20533ee296000548484604051808481526020018060200180602001838103835285818151815260200191508051906020019080838360005b838110156200027357808201518184015260208101905062000256565b50505050905090810190601f168015620002a15780820380516001836020036101000a031916815260200191505b50838103825284818151815260200191508051906020019080838360005b83811015620002dc578082015181840152602081019050620002bf565b50505050905090810190601f1680156200030a5780820380516001836020036101000a031916815260200191505b509550505050505060405180910390a1505050565b828054600181600116156101000203166002900490600052602060002090601f016020900481019282601f106200036257805160ff191683800117855562000393565b8280016001018555821562000393579182015b828111156200039257825182559160200191906001019062000375565b5b509050620003a29190620003a6565b5090565b620003cb91905b80821115620003c7576000816000905550600101620003ad565b5090565b90565b610f1a80620003de6000396000f3fe608060405234801561001057600080fd5b50600436106100625760003560e01c8063107046bd146100675780634e89625814610267578063a3ab739214610388578063acbf5801146103a6578063c73b302e1461046b578063cf7be6ec14610489575b600080fd5b6100936004803603602081101561007d57600080fd5b8101908080359060200190929190505050610672565b604051808881526020018060200180602001806020018060200187815260200186815260200185810385528b818151815260200191508051906020019080838360005b838110156100f15780820151818401526020810190506100d6565b50505050905090810190601f16801561011e5780820380516001836020036101000a031916815260200191505b5085810384528a818151815260200191508051906020019080838360005b8381101561015757808201518184015260208101905061013c565b50505050905090810190601f1680156101845780820380516001836020036101000a031916815260200191505b50858103835289818151815260200191508051906020019080838360005b838110156101bd5780820151818401526020810190506101a2565b50505050905090810190601f1680156101ea5780820380516001836020036101000a031916815260200191505b50858103825288818151815260200191508051906020019080838360005b83811015610223578082015181840152602081019050610208565b50505050905090810190601f1680156102505780820380516001836020036101000a031916815260200191505b509b50505050505050505050505060405180910390f35b6102936004803603602081101561027d57600080fd5b8101908080359060200190929190505050610914565b604051808581526020018481526020018060200180602001838103835285818151815260200191508051906020019080838360005b838110156102e35780820151818401526020810190506102c8565b50505050905090810190601f1680156103105780820380516001836020036101000a031916815260200191505b50838103825284818151815260200191508051906020019080838360005b8381101561034957808201518184015260208101905061032e565b50505050905090810190601f1680156103765780820380516001836020036101000a031916815260200191505b50965050505050505060405180910390f35b610390610a74565b6040518082815260200191505060405180910390f35b610469600480360360408110156103bc57600080fd5b8101908080359060200190929190803590602001906401000000008111156103e357600080fd5b8201836020820111156103f557600080fd5b8035906020019184600183028401116401000000008311171561041757600080fd5b91908080601f016020809104026020016040519081016040528093929190818152602001838380828437600081840152601f19601f820116905080830192505050505050509192919290505050610a7a565b005b610473610bfc565b6040518082815260200191505060405180910390f35b6106706004803603606081101561049f57600080fd5b81019080803590602001906401000000008111156104bc57600080fd5b8201836020820111156104ce57600080fd5b803590602001918460018302840111640100000000831117156104f057600080fd5b91908080601f016020809104026020016040519081016040528093929190818152602001838380828437600081840152601f19601f8201169050808301925050505050505091929192908035906020019064010000000081111561055357600080fd5b82018360208201111561056557600080fd5b8035906020019184600183028401116401000000008311171561058757600080fd5b91908080601f016020809104026020016040519081016040528093929190818152602001838380828437600081840152601f19601f820116905080830192505050505050509192919290803590602001906401000000008111156105ea57600080fd5b8201836020820111156105fc57600080fd5b8035906020019184600183028401116401000000008311171561061e57600080fd5b91908080601f016020809104026020016040519081016040528093929190818152602001838380828437600081840152601f19601f820116905080830192505050505050509192919290505050610c02565b005b6002602052806000526040600020600091509050806000015490806001018054600181600116156101000203166002900480601f0160208091040260200160405190810160405280929190818152602001828054600181600116156101000203166002900480156107245780601f106106f957610100808354040283529160200191610724565b820191906000526020600020905b81548152906001019060200180831161070757829003601f168201915b505050505090806002018054600181600116156101000203166002900480601f0160208091040260200160405190810160405280929190818152602001828054600181600116156101000203166002900480156107c25780601f10610797576101008083540402835291602001916107c2565b820191906000526020600020905b8154815290600101906020018083116107a557829003601f168201915b505050505090806003018054600181600116156101000203166002900480601f0160208091040260200160405190810160405280929190818152602001828054600181600116156101000203166002900480156108605780601f1061083557610100808354040283529160200191610860565b820191906000526020600020905b81548152906001019060200180831161084357829003601f168201915b505050505090806004018054600181600116156101000203166002900480601f0160208091040260200160405190810160405280929190818152602001828054600181600116156101000203166002900480156108fe5780601f106108d3576101008083540402835291602001916108fe565b820191906000526020600020905b8154815290600101906020018083116108e157829003601f168201915b5050505050908060050154908060060154905087565b6003602052806000526040600020600091509050806000015490806001015490806002018054600181600116156101000203166002900480601f0160208091040260200160405190810160405280929190818152602001828054600181600116156101000203166002900480156109cc5780601f106109a1576101008083540402835291602001916109cc565b820191906000526020600020905b8154815290600101906020018083116109af57829003601f168201915b505050505090806003018054600181600116156101000203166002900480601f016020809104026020016040519081016040528092919081815260200182805460018160011615610100020316600290048015610a6a5780601f10610a3f57610100808354040283529160200191610a6a565b820191906000526020600020905b815481529060010190602001808311610a4d57829003601f168201915b5050505050905084565b60015481565b600160008154809291906001019190505550604051806080016040528060015481526020018381526020018281526020016040518060400160405280600381526020017f6e6577000000000000000000000000000000000000000000000000000000000081525081525060036000600154815260200190815260200160002060008201518160000155602082015181600101556040820151816002019080519060200190610b29929190610e40565b506060820151816003019080519060200190610b46929190610e40565b509050507f5c8d1f3ea735474e710765dd2f590168d1dd4f9db78f0b7149e8248f6983724560015483836040518084815260200183815260200180602001828103825283818151815260200191508051906020019080838360005b83811015610bbc578082015181840152602081019050610ba1565b50505050905090810190601f168015610be95780820380516001836020036101000a031916815260200191505b5094505050505060405180910390a15050565b60005481565b60008081548092919060010191905055506040518060e0016040528060005481526020018481526020018381526020018281526020016040518060400160405280600381526020017f6e6577000000000000000000000000000000000000000000000000000000000081525081526020016000815260200160008152506002600080548152602001908152602001600020600082015181600001556020820151816001019080519060200190610cb9929190610e40565b506040820151816002019080519060200190610cd6929190610e40565b506060820151816003019080519060200190610cf3929190610e40565b506080820151816004019080519060200190610d10929190610e40565b5060a0820151816005015560c082015181600601559050507fadcf8647c0412b41191550bea7144aee81f4771fab561d85a968b7d20533ee296000548484604051808481526020018060200180602001838103835285818151815260200191508051906020019080838360005b83811015610d98578082015181840152602081019050610d7d565b50505050905090810190601f168015610dc55780820380516001836020036101000a031916815260200191505b50838103825284818151815260200191508051906020019080838360005b83811015610dfe578082015181840152602081019050610de3565b50505050905090810190601f168015610e2b5780820380516001836020036101000a031916815260200191505b509550505050505060405180910390a1505050565b828054600181600116156101000203166002900490600052602060002090601f016020900481019282601f10610e8157805160ff1916838001178555610eaf565b82800160010185558215610eaf579182015b82811115610eae578251825591602001919060010190610e93565b5b509050610ebc9190610ec0565b5090565b610ee291905b80821115610ede576000816000905550600101610ec6565b5090565b9056fea265627a7a72315820ffdb4a8a74dc296e13b4fcdbf967d8a6407804e9f10b63acf6205349efd4051364736f6c63430005100032",
  "source": "pragma solidity >=0.4.21 <0.7.0;\r\n\r\ncontract GovtsChain {\r\n    uint256 public projectsCount = 0;\r\n    uint256 public quotationsCount = 0;\r\n\r\n    struct Project {\r\n        uint256 id;\r\n        string name;\r\n        string description;\r\n        string fund;\r\n        string status;\r\n        uint256 quotationId;\r\n        uint256 quotationsCount;\r\n    }\r\n\r\n    struct Quotation {\r\n        uint256 id;\r\n        uint256 projectId;\r\n        string projectName;\r\n        string status;\r\n    }\r\n\r\n    mapping(uint256 => Project) public projects;\r\n    mapping(uint256 => Quotation) public quotations;\r\n\r\n    event ProjectCreated(uint256 id, string name, string description);\r\n    event QuotationCreated(uint256 id, uint256 projectId, string projectName);\r\n\r\n    constructor() public {\r\n        createProject(\"Project name\", \"Initial test project\", \"Fund 1\");\r\n    }\r\n\r\n    function createProject(\r\n        string memory _name,\r\n        string memory _description,\r\n        string memory _fund\r\n    ) public {\r\n        projectsCount++;\r\n        projects[projectsCount] = Project(\r\n            projectsCount,\r\n            _name,\r\n            _description,\r\n            _fund,\r\n            \"new\",\r\n            0,\r\n            0\r\n        );\r\n\r\n        emit ProjectCreated(projectsCount, _name, _description);\r\n    }\r\n\r\n    function createQuotation(uint256 _projectId, string memory _projectName)\r\n        public\r\n    {\r\n        quotationsCount++;\r\n        quotations[quotationsCount] = Quotation(\r\n            quotationsCount,\r\n            _projectId,\r\n            _projectName,\r\n            \"new\"\r\n        );\r\n\r\n        emit QuotationCreated(quotationsCount, _projectId, _projectName);\r\n    }\r\n}\r\n",
  "sourcePath": "E:\\projs\\mine\\st_projects\\govt-chains\\app\\truffle\\contracts\\GovtsChain.sol",
  "compiler": {
    "name": "solc",
    "version": "0.5.16+commit.9c3226ce.Emscripten.clang"
  },
  "schemaVersion": "3.0.23",
  "updatedAt": "2020-07-27T06:10:39.556Z",
  "devdoc": {
    "methods": {}
  },
  "userdoc": {
    "methods": {}
  }
}