{
  "contractName": "ProgressChain",
  "abi": [
    {
      "anonymous": false,
      "inputs": [
        {
          "indexed": false,
          "internalType": "uint256",
          "name": "id",
          "type": "uint256"
        }
      ],
      "name": "BlockCreated",
      "type": "event"
    },
    {
      "constant": true,
      "inputs": [],
      "name": "blockCount",
      "outputs": [
        {
          "internalType": "uint256",
          "name": "",
          "type": "uint256"
        }
      ],
      "payable": false,
      "stateMutability": "view",
      "type": "function"
    },
    {
      "constant": true,
      "inputs": [
        {
          "internalType": "uint256",
          "name": "",
          "type": "uint256"
        }
      ],
      "name": "blocks",
      "outputs": [
        {
          "internalType": "uint256",
          "name": "id",
          "type": "uint256"
        },
        {
          "internalType": "uint256",
          "name": "projectId",
          "type": "uint256"
        },
        {
          "internalType": "uint256",
          "name": "contractorId",
          "type": "uint256"
        },
        {
          "internalType": "uint256",
          "name": "quotationId",
          "type": "uint256"
        },
        {
          "internalType": "string",
          "name": "description",
          "type": "string"
        },
        {
          "internalType": "string",
          "name": "fileHash",
          "type": "string"
        }
      ],
      "payable": false,
      "stateMutability": "view",
      "type": "function"
    },
    {
      "constant": false,
      "inputs": [
        {
          "internalType": "uint256",
          "name": "_projectId",
          "type": "uint256"
        },
        {
          "internalType": "uint256",
          "name": "_contractorId",
          "type": "uint256"
        },
        {
          "internalType": "uint256",
          "name": "_quotationId",
          "type": "uint256"
        },
        {
          "internalType": "string",
          "name": "_description",
          "type": "string"
        },
        {
          "internalType": "string",
          "name": "_fileHash",
          "type": "string"
        }
      ],
      "name": "createBlock",
      "outputs": [],
      "payable": false,
      "stateMutability": "nonpayable",
      "type": "function"
    }
  ],
  "bytecode": "0x60806040526000805534801561001457600080fd5b50610648806100246000396000f3fe608060405234801561001057600080fd5b50600436106100415760003560e01c806307225b4d14610046578063aa42c4ba14610064578063f25b3f99146101d4575b600080fd5b61004e610303565b6040518082815260200191505060405180910390f35b6101d2600480360360a081101561007a57600080fd5b81019080803590602001909291908035906020019092919080359060200190929190803590602001906401000000008111156100b557600080fd5b8201836020820111156100c757600080fd5b803590602001918460018302840111640100000000831117156100e957600080fd5b91908080601f016020809104026020016040519081016040528093929190818152602001838380828437600081840152601f19601f8201169050808301925050505050505091929192908035906020019064010000000081111561014c57600080fd5b82018360208201111561015e57600080fd5b8035906020019184600183028401116401000000008311171561018057600080fd5b91908080601f016020809104026020016040519081016040528093929190818152602001838380828437600081840152601f19601f820116905080830192505050505050509192919290505050610309565b005b610200600480360360208110156101ea57600080fd5b8101908080359060200190929190505050610402565b604051808781526020018681526020018581526020018481526020018060200180602001838103835285818151815260200191508051906020019080838360005b8381101561025c578082015181840152602081019050610241565b50505050905090810190601f1680156102895780820380516001836020036101000a031916815260200191505b50838103825284818151815260200191508051906020019080838360005b838110156102c25780820151818401526020810190506102a7565b50505050905090810190601f1680156102ef5780820380516001836020036101000a031916815260200191505b509850505050505050505060405180910390f35b60005481565b60008081548092919060010191905055506040518060c0016040528060005481526020018681526020018581526020018481526020018381526020018281525060016000805481526020019081526020016000206000820151816000015560208201518160010155604082015181600201556060820151816003015560808201518160040190805190602001906103a192919061056e565b5060a08201518160050190805190602001906103be92919061056e565b509050507f0b567c98c5fa582378ba6f26ceafdae463e045760cc7aa63e74068b24b57c85f6000546040518082815260200191505060405180910390a15050505050565b6001602052806000526040600020600091509050806000015490806001015490806002015490806003015490806004018054600181600116156101000203166002900480601f0160208091040260200160405190810160405280929190818152602001828054600181600116156101000203166002900480156104c65780601f1061049b576101008083540402835291602001916104c6565b820191906000526020600020905b8154815290600101906020018083116104a957829003601f168201915b505050505090806005018054600181600116156101000203166002900480601f0160208091040260200160405190810160405280929190818152602001828054600181600116156101000203166002900480156105645780601f1061053957610100808354040283529160200191610564565b820191906000526020600020905b81548152906001019060200180831161054757829003601f168201915b5050505050905086565b828054600181600116156101000203166002900490600052602060002090601f016020900481019282601f106105af57805160ff19168380011785556105dd565b828001600101855582156105dd579182015b828111156105dc5782518255916020019190600101906105c1565b5b5090506105ea91906105ee565b5090565b61061091905b8082111561060c5760008160009055506001016105f4565b5090565b9056fea265627a7a72315820434a3bbf912839156c505da277cdd848605f50879f66c3da09ed2a76ca5ee24464736f6c63430005100032",
  "source": "pragma solidity >=0.4.21 <0.7.0;\r\n\r\ncontract ProgressChain {\r\n    uint256 public blockCount = 0;\r\n\r\n    struct Block {\r\n        uint256 id;\r\n        uint256 projectId;\r\n        uint256 contractorId;\r\n        uint256 quotationId;\r\n        string description;\r\n        string fileHash;\r\n    }\r\n\r\n    mapping(uint256 => Block) public blocks;\r\n\r\n    event BlockCreated(uint256 id);\r\n\r\n    function createBlock(\r\n        uint256 _projectId,\r\n        uint256 _contractorId,\r\n        uint256 _quotationId,\r\n        string memory _description,\r\n        string memory _fileHash\r\n    ) public {\r\n        blockCount++;\r\n        blocks[blockCount] = Block(\r\n            blockCount,\r\n            _projectId,\r\n            _contractorId,\r\n            _quotationId,\r\n            _description,\r\n            _fileHash\r\n        );\r\n        emit BlockCreated(blockCount);\r\n    }\r\n}\r\n",
  "sourcePath": "E:\\projs\\mine\\st_projects\\govt-chains\\app\\truffle\\contracts\\ProgressChain.sol",
  "compiler": {
    "name": "solc",
    "version": "0.5.16+commit.9c3226ce.Emscripten.clang"
  },
  "schemaVersion": "3.0.23",
  "updatedAt": "2020-07-26T19:44:27.845Z",
  "networkType": "ethereum",
  "devdoc": {
    "methods": {}
  },
  "userdoc": {
    "methods": {}
  }
}