{
  "contractName": "ProjectsChain",
  "abi": [
    {
      "inputs": [],
      "payable": false,
      "stateMutability": "nonpayable",
      "type": "constructor"
    },
    {
      "anonymous": false,
      "inputs": [
        {
          "indexed": false,
          "internalType": "uint256",
          "name": "id",
          "type": "uint256"
        },
        {
          "indexed": false,
          "internalType": "string",
          "name": "name",
          "type": "string"
        },
        {
          "indexed": false,
          "internalType": "string",
          "name": "description",
          "type": "string"
        }
      ],
      "name": "BlockCreated",
      "type": "event"
    },
    {
      "anonymous": false,
      "inputs": [
        {
          "indexed": false,
          "internalType": "uint256",
          "name": "id",
          "type": "uint256"
        }
      ],
      "name": "BlockUpdated",
      "type": "event"
    },
    {
      "anonymous": false,
      "inputs": [
        {
          "indexed": false,
          "internalType": "uint256",
          "name": "projectId",
          "type": "uint256"
        }
      ],
      "name": "CommentCreated",
      "type": "event"
    },
    {
      "constant": true,
      "inputs": [],
      "name": "blockCount",
      "outputs": [
        {
          "internalType": "uint256",
          "name": "",
          "type": "uint256"
        }
      ],
      "payable": false,
      "stateMutability": "view",
      "type": "function"
    },
    {
      "constant": true,
      "inputs": [
        {
          "internalType": "uint256",
          "name": "",
          "type": "uint256"
        }
      ],
      "name": "blocks",
      "outputs": [
        {
          "internalType": "uint256",
          "name": "id",
          "type": "uint256"
        },
        {
          "internalType": "string",
          "name": "name",
          "type": "string"
        },
        {
          "internalType": "string",
          "name": "description",
          "type": "string"
        },
        {
          "internalType": "string",
          "name": "fund",
          "type": "string"
        },
        {
          "internalType": "string",
          "name": "status",
          "type": "string"
        },
        {
          "internalType": "uint256",
          "name": "quotationId",
          "type": "uint256"
        },
        {
          "internalType": "uint256",
          "name": "contractorId",
          "type": "uint256"
        },
        {
          "internalType": "uint256",
          "name": "commentCount",
          "type": "uint256"
        }
      ],
      "payable": false,
      "stateMutability": "view",
      "type": "function"
    },
    {
      "constant": true,
      "inputs": [
        {
          "internalType": "uint256",
          "name": "",
          "type": "uint256"
        },
        {
          "internalType": "uint256",
          "name": "",
          "type": "uint256"
        }
      ],
      "name": "comments",
      "outputs": [
        {
          "internalType": "uint256",
          "name": "id",
          "type": "uint256"
        },
        {
          "internalType": "uint256",
          "name": "projectId",
          "type": "uint256"
        },
        {
          "internalType": "uint256",
          "name": "userId",
          "type": "uint256"
        },
        {
          "internalType": "string",
          "name": "displayName",
          "type": "string"
        },
        {
          "internalType": "string",
          "name": "photoURL",
          "type": "string"
        },
        {
          "internalType": "string",
          "name": "userType",
          "type": "string"
        },
        {
          "internalType": "string",
          "name": "message",
          "type": "string"
        },
        {
          "internalType": "uint256",
          "name": "timestamp",
          "type": "uint256"
        }
      ],
      "payable": false,
      "stateMutability": "view",
      "type": "function"
    },
    {
      "constant": false,
      "inputs": [
        {
          "internalType": "string",
          "name": "_name",
          "type": "string"
        },
        {
          "internalType": "string",
          "name": "_description",
          "type": "string"
        },
        {
          "internalType": "string",
          "name": "_fund",
          "type": "string"
        }
      ],
      "name": "createBlock",
      "outputs": [],
      "payable": false,
      "stateMutability": "nonpayable",
      "type": "function"
    },
    {
      "constant": false,
      "inputs": [
        {
          "internalType": "uint256",
          "name": "_projectId",
          "type": "uint256"
        },
        {
          "internalType": "uint256",
          "name": "_userId",
          "type": "uint256"
        },
        {
          "internalType": "string",
          "name": "_displayName",
          "type": "string"
        },
        {
          "internalType": "string",
          "name": "_photoURL",
          "type": "string"
        },
        {
          "internalType": "string",
          "name": "_userType",
          "type": "string"
        },
        {
          "internalType": "string",
          "name": "_message",
          "type": "string"
        }
      ],
      "name": "addComment",
      "outputs": [],
      "payable": false,
      "stateMutability": "nonpayable",
      "type": "function"
    },
    {
      "constant": false,
      "inputs": [
        {
          "internalType": "uint256",
          "name": "_id",
          "type": "uint256"
        },
        {
          "internalType": "uint256",
          "name": "_quotationId",
          "type": "uint256"
        },
        {
          "internalType": "uint256",
          "name": "_contractorId",
          "type": "uint256"
        }
      ],
      "name": "assignQuotation",
      "outputs": [
        {
          "internalType": "bool",
          "name": "",
          "type": "bool"
        }
      ],
      "payable": false,
      "stateMutability": "nonpayable",
      "type": "function"
    },
    {
      "constant": false,
      "inputs": [
        {
          "internalType": "uint256",
          "name": "_id",
          "type": "uint256"
        }
      ],
      "name": "complete",
      "outputs": [
        {
          "internalType": "bool",
          "name": "",
          "type": "bool"
        }
      ],
      "payable": false,
      "stateMutability": "nonpayable",
      "type": "function"
    }
  ],
  "bytecode": "0x6080604052600080553480156200001557600080fd5b50620000c86040518060400160405280600c81526020017f50726f6a656374206e616d6500000000000000000000000000000000000000008152506040518060400160405280601481526020017f496e697469616c20746573742070726f6a6563740000000000000000000000008152506040518060400160405280600681526020017f46756e6420310000000000000000000000000000000000000000000000000000815250620000ce60201b60201c565b620003db565b600080815480929190600101919050555060405180610100016040528060005481526020018481526020018381526020018281526020016040518060400160405280600381526020017f6e6577000000000000000000000000000000000000000000000000000000000081525081526020016000815260200160008152602001600081525060026000805481526020019081526020016000206000820151816000015560208201518160010190805190602001906200018f9291906200032c565b506040820151816002019080519060200190620001ae9291906200032c565b506060820151816003019080519060200190620001cd9291906200032c565b506080820151816004019080519060200190620001ec9291906200032c565b5060a0820151816005015560c0820151816006015560e082015181600701559050507f54d1f176cb754e55b1bea9033740e45f7d602a14d0d0769694b9570230d92f956000548484604051808481526020018060200180602001838103835285818151815260200191508051906020019080838360005b838110156200028057808201518184015260208101905062000263565b50505050905090810190601f168015620002ae5780820380516001836020036101000a031916815260200191505b50838103825284818151815260200191508051906020019080838360005b83811015620002e9578082015181840152602081019050620002cc565b50505050905090810190601f168015620003175780820380516001836020036101000a031916815260200191505b509550505050505060405180910390a1505050565b828054600181600116156101000203166002900490600052602060002090601f016020900481019282601f106200036f57805160ff1916838001178555620003a0565b82800160010185558215620003a0579182015b828111156200039f57825182559160200191906001019062000382565b5b509050620003af9190620003b3565b5090565b620003d891905b80821115620003d4576000816000905550600101620003ba565b5090565b90565b6117c480620003eb6000396000f3fe608060405234801561001057600080fd5b506004361061007d5760003560e01c8063971d852f1161005b578063971d852f146102e3578063bf523f7714610329578063f25b3f99146105bd578063fc6c776f146107c45761007d565b806307225b4d1461008257806313722c17146100a057806349420763146100fa575b600080fd5b61008a6109d5565b6040518082815260200191505060405180910390f35b6100e0600480360360608110156100b657600080fd5b810190808035906020019092919080359060200190929190803590602001909291905050506109db565b604051808215151515815260200191505060405180910390f35b6102e16004803603606081101561011057600080fd5b810190808035906020019064010000000081111561012d57600080fd5b82018360208201111561013f57600080fd5b8035906020019184600183028401116401000000008311171561016157600080fd5b91908080601f016020809104026020016040519081016040528093929190818152602001838380828437600081840152601f19601f820116905080830192505050505050509192919290803590602001906401000000008111156101c457600080fd5b8201836020820111156101d657600080fd5b803590602001918460018302840111640100000000831117156101f857600080fd5b91908080601f016020809104026020016040519081016040528093929190818152602001838380828437600081840152601f19601f8201169050808301925050505050505091929192908035906020019064010000000081111561025b57600080fd5b82018360208201111561026d57600080fd5b8035906020019184600183028401116401000000008311171561028f57600080fd5b91908080601f016020809104026020016040519081016040528093929190818152602001838380828437600081840152601f19601f820116905080830192505050505050509192919290505050610ba7565b005b61030f600480360360208110156102f957600080fd5b8101908080359060200190929190505050610df7565b604051808215151515815260200191505060405180910390f35b6105bb600480360360c081101561033f57600080fd5b8101908080359060200190929190803590602001909291908035906020019064010000000081111561037057600080fd5b82018360208201111561038257600080fd5b803590602001918460018302840111640100000000831117156103a457600080fd5b91908080601f016020809104026020016040519081016040528093929190818152602001838380828437600081840152601f19601f8201169050808301925050505050505091929192908035906020019064010000000081111561040757600080fd5b82018360208201111561041957600080fd5b8035906020019184600183028401116401000000008311171561043b57600080fd5b91908080601f016020809104026020016040519081016040528093929190818152602001838380828437600081840152601f19601f8201169050808301925050505050505091929192908035906020019064010000000081111561049e57600080fd5b8201836020820111156104b057600080fd5b803590602001918460018302840111640100000000831117156104d257600080fd5b91908080601f016020809104026020016040519081016040528093929190818152602001838380828437600081840152601f19601f8201169050808301925050505050505091929192908035906020019064010000000081111561053557600080fd5b82018360208201111561054757600080fd5b8035906020019184600183028401116401000000008311171561056957600080fd5b91908080601f016020809104026020016040519081016040528093929190818152602001838380828437600081840152601f19601f820116905080830192505050505050509192919290505050610f7f565b005b6105e9600480360360208110156105d357600080fd5b810190808035906020019092919050505061110d565b604051808981526020018060200180602001806020018060200188815260200187815260200186815260200185810385528c818151815260200191508051906020019080838360005b8381101561064d578082015181840152602081019050610632565b50505050905090810190601f16801561067a5780820380516001836020036101000a031916815260200191505b5085810384528b818151815260200191508051906020019080838360005b838110156106b3578082015181840152602081019050610698565b50505050905090810190601f1680156106e05780820380516001836020036101000a031916815260200191505b5085810383528a818151815260200191508051906020019080838360005b838110156107195780820151818401526020810190506106fe565b50505050905090810190601f1680156107465780820380516001836020036101000a031916815260200191505b50858103825289818151815260200191508051906020019080838360005b8381101561077f578082015181840152602081019050610764565b50505050905090810190601f1680156107ac5780820380516001836020036101000a031916815260200191505b509c5050505050505050505050505060405180910390f35b6107fa600480360360408110156107da57600080fd5b8101908080359060200190929190803590602001909291905050506113b5565b604051808981526020018881526020018781526020018060200180602001806020018060200186815260200185810385528a818151815260200191508051906020019080838360005b8381101561085e578082015181840152602081019050610843565b50505050905090810190601f16801561088b5780820380516001836020036101000a031916815260200191505b50858103845289818151815260200191508051906020019080838360005b838110156108c45780820151818401526020810190506108a9565b50505050905090810190601f1680156108f15780820380516001836020036101000a031916815260200191505b50858103835288818151815260200191508051906020019080838360005b8381101561092a57808201518184015260208101905061090f565b50505050905090810190601f1680156109575780820380516001836020036101000a031916815260200191505b50858103825287818151815260200191508051906020019080838360005b83811015610990578082015181840152602081019050610975565b50505050905090810190601f1680156109bd5780820380516001836020036101000a031916815260200191505b509c5050505050505050505050505060405180910390f35b60005481565b600060405160200180807f6e65770000000000000000000000000000000000000000000000000000000000815250600301905060405160208183030381529060405280519060200120600260008681526020019081526020016000206004016040516020018082805460018160011615610100020316600290048015610a985780601f10610a76576101008083540402835291820191610a98565b820191906000526020600020905b815481529060010190602001808311610a84575b505091505060405160208183030381529060405280519060200120148015610ac05750600083115b15610b9b576040518060400160405280600a81526020017f696e70726f677265737300000000000000000000000000000000000000000000815250600260008681526020019081526020016000206004019080519060200190610b2492919061166a565b508260026000868152602001908152602001600020600501819055508160026000868152602001908152602001600020600601819055507f0346ad8f500fe7b72ebcb4aae4c475b475d322fc11f0945ea320b34f851dcded846040518082815260200191505060405180910390a160019050610ba0565b600090505b9392505050565b600080815480929190600101919050555060405180610100016040528060005481526020018481526020018381526020018281526020016040518060400160405280600381526020017f6e657700000000000000000000000000000000000000000000000000000000008152508152602001600081526020016000815260200160008152506002600080548152602001908152602001600020600082015181600001556020820151816001019080519060200190610c669291906116ea565b506040820151816002019080519060200190610c839291906116ea565b506060820151816003019080519060200190610ca09291906116ea565b506080820151816004019080519060200190610cbd9291906116ea565b5060a0820151816005015560c0820151816006015560e082015181600701559050507f54d1f176cb754e55b1bea9033740e45f7d602a14d0d0769694b9570230d92f956000548484604051808481526020018060200180602001838103835285818151815260200191508051906020019080838360005b83811015610d4f578082015181840152602081019050610d34565b50505050905090810190601f168015610d7c5780820380516001836020036101000a031916815260200191505b50838103825284818151815260200191508051906020019080838360005b83811015610db5578082015181840152602081019050610d9a565b50505050905090810190601f168015610de25780820380516001836020036101000a031916815260200191505b509550505050505060405180910390a1505050565b600060405160200180807f696e70726f677265737300000000000000000000000000000000000000000000815250600a01905060405160208183030381529060405280519060200120600260008481526020019081526020016000206004016040516020018082805460018160011615610100020316600290048015610eb45780601f10610e92576101008083540402835291820191610eb4565b820191906000526020600020905b815481529060010190602001808311610ea0575b5050915050604051602081830303815290604052805190602001201415610f75576040518060400160405280600981526020017f636f6d706c657465640000000000000000000000000000000000000000000000815250600260008481526020019081526020016000206004019080519060200190610f3492919061166a565b507f0346ad8f500fe7b72ebcb4aae4c475b475d322fc11f0945ea320b34f851dcded826040518082815260200191505060405180910390a160019050610f7a565b600090505b919050565b60026000878152602001908152602001600020600701600081548092919060010191905055506040518061010001604052806002600089815260200190815260200160002060070154815260200187815260200186815260200185815260200184815260200183815260200182815260200142815250600160008881526020019081526020016000206000600260008a815260200190815260200160002060070154815260200190815260200160002060008201518160000155602082015181600101556040820151816002015560608201518160030190805190602001906110699291906116ea565b5060808201518160040190805190602001906110869291906116ea565b5060a08201518160050190805190602001906110a39291906116ea565b5060c08201518160060190805190602001906110c09291906116ea565b5060e082015181600701559050507f5a1a930fed43f34b3a07db782ebcac28a661c273e662bb98458cfba5a8ccd220866040518082815260200191505060405180910390a1505050505050565b6002602052806000526040600020600091509050806000015490806001018054600181600116156101000203166002900480601f0160208091040260200160405190810160405280929190818152602001828054600181600116156101000203166002900480156111bf5780601f10611194576101008083540402835291602001916111bf565b820191906000526020600020905b8154815290600101906020018083116111a257829003601f168201915b505050505090806002018054600181600116156101000203166002900480601f01602080910402602001604051908101604052809291908181526020018280546001816001161561010002031660029004801561125d5780601f106112325761010080835404028352916020019161125d565b820191906000526020600020905b81548152906001019060200180831161124057829003601f168201915b505050505090806003018054600181600116156101000203166002900480601f0160208091040260200160405190810160405280929190818152602001828054600181600116156101000203166002900480156112fb5780601f106112d0576101008083540402835291602001916112fb565b820191906000526020600020905b8154815290600101906020018083116112de57829003601f168201915b505050505090806004018054600181600116156101000203166002900480601f0160208091040260200160405190810160405280929190818152602001828054600181600116156101000203166002900480156113995780601f1061136e57610100808354040283529160200191611399565b820191906000526020600020905b81548152906001019060200180831161137c57829003601f168201915b5050505050908060050154908060060154908060070154905088565b600160205281600052604060002060205280600052604060002060009150915050806000015490806001015490806002015490806003018054600181600116156101000203166002900480601f0160208091040260200160405190810160405280929190818152602001828054600181600116156101000203166002900480156114805780601f1061145557610100808354040283529160200191611480565b820191906000526020600020905b81548152906001019060200180831161146357829003601f168201915b505050505090806004018054600181600116156101000203166002900480601f01602080910402602001604051908101604052809291908181526020018280546001816001161561010002031660029004801561151e5780601f106114f35761010080835404028352916020019161151e565b820191906000526020600020905b81548152906001019060200180831161150157829003601f168201915b505050505090806005018054600181600116156101000203166002900480601f0160208091040260200160405190810160405280929190818152602001828054600181600116156101000203166002900480156115bc5780601f10611591576101008083540402835291602001916115bc565b820191906000526020600020905b81548152906001019060200180831161159f57829003601f168201915b505050505090806006018054600181600116156101000203166002900480601f01602080910402602001604051908101604052809291908181526020018280546001816001161561010002031660029004801561165a5780601f1061162f5761010080835404028352916020019161165a565b820191906000526020600020905b81548152906001019060200180831161163d57829003601f168201915b5050505050908060070154905088565b828054600181600116156101000203166002900490600052602060002090601f016020900481019282601f106116ab57805160ff19168380011785556116d9565b828001600101855582156116d9579182015b828111156116d85782518255916020019190600101906116bd565b5b5090506116e6919061176a565b5090565b828054600181600116156101000203166002900490600052602060002090601f016020900481019282601f1061172b57805160ff1916838001178555611759565b82800160010185558215611759579182015b8281111561175857825182559160200191906001019061173d565b5b509050611766919061176a565b5090565b61178c91905b80821115611788576000816000905550600101611770565b5090565b9056fea265627a7a723158208ad44bc9df551d93bfb590e8448c9f5a98b7380fba4c4c83a04cc627b57d42bb64736f6c63430005100032",
  "source": "pragma solidity >=0.4.21 <0.7.0;\r\n\r\ncontract ProjectsChain {\r\n    uint256 public blockCount = 0;\r\n\r\n    struct Block {\r\n        uint256 id;\r\n        string name;\r\n        string description;\r\n        string fund;\r\n        string status;\r\n        uint256 quotationId;\r\n        uint256 contractorId;\r\n        uint256 commentCount;\r\n    }\r\n\r\n    struct Comment {\r\n        uint256 id;\r\n        uint256 projectId;\r\n        uint256 userId;\r\n        string displayName;\r\n        string photoURL;\r\n        string userType;\r\n        string message;\r\n        uint256 timestamp;\r\n    }\r\n\r\n    mapping(uint256 => mapping(uint256 => Comment)) public comments;\r\n\r\n    mapping(uint256 => Block) public blocks;\r\n\r\n    event CommentCreated(uint256 projectId);\r\n\r\n    event BlockCreated(uint256 id, string name, string description);\r\n    event BlockUpdated(uint256 id);\r\n\r\n    constructor() public {\r\n        createBlock(\"Project name\", \"Initial test project\", \"Fund 1\");\r\n    }\r\n\r\n    function createBlock(\r\n        string memory _name,\r\n        string memory _description,\r\n        string memory _fund\r\n    ) public {\r\n        blockCount++;\r\n        blocks[blockCount] = Block(\r\n            blockCount,\r\n            _name,\r\n            _description,\r\n            _fund,\r\n            \"new\",\r\n            0,\r\n            0,\r\n            0\r\n        );\r\n\r\n        emit BlockCreated(blockCount, _name, _description);\r\n    }\r\n\r\n    function addComment(\r\n        uint256 _projectId,\r\n        uint256 _userId,\r\n        string memory _displayName,\r\n        string memory _photoURL,\r\n        string memory _userType,\r\n        string memory _message\r\n    ) public {\r\n        blocks[_projectId].commentCount++;\r\n\r\n        comments[_projectId][blocks[_projectId].commentCount] = Comment(\r\n            blocks[_projectId].commentCount,\r\n            _projectId,\r\n            _userId,\r\n            _displayName,\r\n            _photoURL,\r\n            _userType,\r\n            _message,\r\n            now\r\n        );\r\n\r\n        emit CommentCreated(_projectId);\r\n    }\r\n\r\n    function assignQuotation(\r\n        uint256 _id,\r\n        uint256 _quotationId,\r\n        uint256 _contractorId\r\n    ) public returns (bool) {\r\n        if (\r\n            keccak256(abi.encodePacked(blocks[_id].status)) ==\r\n            keccak256(abi.encodePacked(\"new\")) &&\r\n            _quotationId > 0\r\n        ) {\r\n            blocks[_id].status = \"inprogress\";\r\n            blocks[_id].quotationId = _quotationId;\r\n            blocks[_id].contractorId = _contractorId;\r\n\r\n            emit BlockUpdated(_id);\r\n            return true;\r\n        }\r\n        return false;\r\n    }\r\n\r\n    function complete(uint256 _id) public returns (bool) {\r\n        if (\r\n            keccak256(abi.encodePacked(blocks[_id].status)) ==\r\n            keccak256(abi.encodePacked(\"inprogress\"))\r\n        ) {\r\n            blocks[_id].status = \"completed\";\r\n\r\n            emit BlockUpdated(_id);\r\n            return true;\r\n        }\r\n        return false;\r\n    }\r\n}\r\n",
  "sourcePath": "E:\\projs\\mine\\st_projects\\govt-chains\\app\\truffle\\contracts\\ProjectsChain.sol",
  "compiler": {
    "name": "solc",
    "version": "0.5.16+commit.9c3226ce.Emscripten.clang"
  },
  "schemaVersion": "3.0.23",
  "updatedAt": "2020-07-26T19:44:27.826Z",
  "networkType": "ethereum",
  "devdoc": {
    "methods": {}
  },
  "userdoc": {
    "methods": {}
  }
}