{
  "contractName": "QuotationsChain",
  "abi": [
    {
      "inputs": [],
      "payable": false,
      "stateMutability": "nonpayable",
      "type": "constructor"
    },
    {
      "anonymous": false,
      "inputs": [
        {
          "indexed": false,
          "internalType": "uint256",
          "name": "id",
          "type": "uint256"
        },
        {
          "indexed": false,
          "internalType": "uint256",
          "name": "projectId",
          "type": "uint256"
        },
        {
          "indexed": false,
          "internalType": "string",
          "name": "projectName",
          "type": "string"
        }
      ],
      "name": "BlockCreated",
      "type": "event"
    },
    {
      "anonymous": false,
      "inputs": [
        {
          "indexed": false,
          "internalType": "uint256",
          "name": "id",
          "type": "uint256"
        }
      ],
      "name": "BlockUpdated",
      "type": "event"
    },
    {
      "constant": true,
      "inputs": [],
      "name": "blockCount",
      "outputs": [
        {
          "internalType": "uint256",
          "name": "",
          "type": "uint256"
        }
      ],
      "payable": false,
      "stateMutability": "view",
      "type": "function"
    },
    {
      "constant": true,
      "inputs": [
        {
          "internalType": "uint256",
          "name": "",
          "type": "uint256"
        }
      ],
      "name": "blocks",
      "outputs": [
        {
          "internalType": "uint256",
          "name": "id",
          "type": "uint256"
        },
        {
          "internalType": "uint256",
          "name": "projectId",
          "type": "uint256"
        },
        {
          "internalType": "string",
          "name": "projectName",
          "type": "string"
        },
        {
          "internalType": "uint256",
          "name": "contractorId",
          "type": "uint256"
        },
        {
          "internalType": "string",
          "name": "contractorName",
          "type": "string"
        },
        {
          "internalType": "string",
          "name": "status",
          "type": "string"
        },
        {
          "internalType": "string",
          "name": "fileHash",
          "type": "string"
        }
      ],
      "payable": false,
      "stateMutability": "view",
      "type": "function"
    },
    {
      "constant": false,
      "inputs": [
        {
          "internalType": "uint256",
          "name": "_projectId",
          "type": "uint256"
        },
        {
          "internalType": "string",
          "name": "_projectName",
          "type": "string"
        },
        {
          "internalType": "uint256",
          "name": "_contractorId",
          "type": "uint256"
        },
        {
          "internalType": "string",
          "name": "_contractorName",
          "type": "string"
        },
        {
          "internalType": "string",
          "name": "_fileHash",
          "type": "string"
        }
      ],
      "name": "createBlock",
      "outputs": [],
      "payable": false,
      "stateMutability": "nonpayable",
      "type": "function"
    },
    {
      "constant": false,
      "inputs": [
        {
          "internalType": "uint256",
          "name": "_id",
          "type": "uint256"
        }
      ],
      "name": "approve",
      "outputs": [],
      "payable": false,
      "stateMutability": "nonpayable",
      "type": "function"
    },
    {
      "constant": false,
      "inputs": [
        {
          "internalType": "uint256",
          "name": "_id",
          "type": "uint256"
        }
      ],
      "name": "reject",
      "outputs": [],
      "payable": false,
      "stateMutability": "nonpayable",
      "type": "function"
    }
  ],
  "bytecode": "0x6080604052600080553480156200001557600080fd5b50620000a660016040518060400160405280601481526020017f496e697469616c20746573742070726f6a65637400000000000000000000000081525060016040518060400160405280600681526020017f53616368696e000000000000000000000000000000000000000000000000000081525060405180602001604052806000815250620000ac60201b60201c565b6200033f565b60008081548092919060010191905055506040518060e0016040528060005481526020018681526020018581526020018481526020018381526020016040518060400160405280600381526020017f6e657700000000000000000000000000000000000000000000000000000000008152508152602001828152506001600080548152602001908152602001600020600082015181600001556020820151816001015560408201518160020190805190602001906200016d92919062000290565b506060820151816003015560808201518160040190805190602001906200019692919062000290565b5060a0820151816005019080519060200190620001b592919062000290565b5060c0820151816006019080519060200190620001d492919062000290565b509050507fc588a4e815a14f55c758f5214da739a6edc7d40be77634dec92266ff9e60bb0560005486866040518084815260200183815260200180602001828103825283818151815260200191508051906020019080838360005b838110156200024c5780820151818401526020810190506200022f565b50505050905090810190601f1680156200027a5780820380516001836020036101000a031916815260200191505b5094505050505060405180910390a15050505050565b828054600181600116156101000203166002900490600052602060002090601f016020900481019282601f10620002d357805160ff191683800117855562000304565b8280016001018555821562000304579182015b8281111562000303578251825591602001919060010190620002e6565b5b50905062000313919062000317565b5090565b6200033c91905b80821115620003385760008160009055506001016200031e565b5090565b90565b610be2806200034f6000396000f3fe608060405234801561001057600080fd5b50600436106100575760003560e01c806307225b4d1461005c578063b759f9541461007a578063b8adaa11146100a8578063d3d8831e146100d6578063f25b3f99146102d3575b600080fd5b6100646104d3565b6040518082815260200191505060405180910390f35b6100a66004803603602081101561009057600080fd5b81019080803590602001909291905050506104d9565b005b6100d4600480360360208110156100be57600080fd5b8101908080359060200190929190505050610573565b005b6102d1600480360360a08110156100ec57600080fd5b81019080803590602001909291908035906020019064010000000081111561011357600080fd5b82018360208201111561012557600080fd5b8035906020019184600183028401116401000000008311171561014757600080fd5b91908080601f016020809104026020016040519081016040528093929190818152602001838380828437600081840152601f19601f82011690508083019250505050505050919291929080359060200190929190803590602001906401000000008111156101b457600080fd5b8201836020820111156101c657600080fd5b803590602001918460018302840111640100000000831117156101e857600080fd5b91908080601f016020809104026020016040519081016040528093929190818152602001838380828437600081840152601f19601f8201169050808301925050505050505091929192908035906020019064010000000081111561024b57600080fd5b82018360208201111561025d57600080fd5b8035906020019184600183028401116401000000008311171561027f57600080fd5b91908080601f016020809104026020016040519081016040528093929190818152602001838380828437600081840152601f19601f82011690508083019250505050505050919291929050505061060d565b005b6102ff600480360360208110156102e957600080fd5b81019080803590602001909291905050506107e6565b604051808881526020018781526020018060200186815260200180602001806020018060200185810385528a818151815260200191508051906020019080838360005b8381101561035d578082015181840152602081019050610342565b50505050905090810190601f16801561038a5780820380516001836020036101000a031916815260200191505b50858103845288818151815260200191508051906020019080838360005b838110156103c35780820151818401526020810190506103a8565b50505050905090810190601f1680156103f05780820380516001836020036101000a031916815260200191505b50858103835287818151815260200191508051906020019080838360005b8381101561042957808201518184015260208101905061040e565b50505050905090810190601f1680156104565780820380516001836020036101000a031916815260200191505b50858103825286818151815260200191508051906020019080838360005b8381101561048f578082015181840152602081019050610474565b50505050905090810190601f1680156104bc5780820380516001836020036101000a031916815260200191505b509b50505050505050505050505060405180910390f35b60005481565b6040518060400160405280600881526020017f617070726f766564000000000000000000000000000000000000000000000000815250600160008381526020019081526020016000206005019080519060200190610538929190610a88565b507f0346ad8f500fe7b72ebcb4aae4c475b475d322fc11f0945ea320b34f851dcded816040518082815260200191505060405180910390a150565b6040518060400160405280600881526020017f72656a65637465640000000000000000000000000000000000000000000000008152506001600083815260200190815260200160002060050190805190602001906105d2929190610a88565b507f0346ad8f500fe7b72ebcb4aae4c475b475d322fc11f0945ea320b34f851dcded816040518082815260200191505060405180910390a150565b60008081548092919060010191905055506040518060e0016040528060005481526020018681526020018581526020018481526020018381526020016040518060400160405280600381526020017f6e657700000000000000000000000000000000000000000000000000000000008152508152602001828152506001600080548152602001908152602001600020600082015181600001556020820151816001015560408201518160020190805190602001906106cc929190610b08565b506060820151816003015560808201518160040190805190602001906106f3929190610b08565b5060a0820151816005019080519060200190610710929190610b08565b5060c082015181600601908051906020019061072d929190610b08565b509050507fc588a4e815a14f55c758f5214da739a6edc7d40be77634dec92266ff9e60bb0560005486866040518084815260200183815260200180602001828103825283818151815260200191508051906020019080838360005b838110156107a3578082015181840152602081019050610788565b50505050905090810190601f1680156107d05780820380516001836020036101000a031916815260200191505b5094505050505060405180910390a15050505050565b6001602052806000526040600020600091509050806000015490806001015490806002018054600181600116156101000203166002900480601f01602080910402602001604051908101604052809291908181526020018280546001816001161561010002031660029004801561089e5780601f106108735761010080835404028352916020019161089e565b820191906000526020600020905b81548152906001019060200180831161088157829003601f168201915b505050505090806003015490806004018054600181600116156101000203166002900480601f0160208091040260200160405190810160405280929190818152602001828054600181600116156101000203166002900480156109425780601f1061091757610100808354040283529160200191610942565b820191906000526020600020905b81548152906001019060200180831161092557829003601f168201915b505050505090806005018054600181600116156101000203166002900480601f0160208091040260200160405190810160405280929190818152602001828054600181600116156101000203166002900480156109e05780601f106109b5576101008083540402835291602001916109e0565b820191906000526020600020905b8154815290600101906020018083116109c357829003601f168201915b505050505090806006018054600181600116156101000203166002900480601f016020809104026020016040519081016040528092919081815260200182805460018160011615610100020316600290048015610a7e5780601f10610a5357610100808354040283529160200191610a7e565b820191906000526020600020905b815481529060010190602001808311610a6157829003601f168201915b5050505050905087565b828054600181600116156101000203166002900490600052602060002090601f016020900481019282601f10610ac957805160ff1916838001178555610af7565b82800160010185558215610af7579182015b82811115610af6578251825591602001919060010190610adb565b5b509050610b049190610b88565b5090565b828054600181600116156101000203166002900490600052602060002090601f016020900481019282601f10610b4957805160ff1916838001178555610b77565b82800160010185558215610b77579182015b82811115610b76578251825591602001919060010190610b5b565b5b509050610b849190610b88565b5090565b610baa91905b80821115610ba6576000816000905550600101610b8e565b5090565b9056fea265627a7a72315820b1aea051139f9c5ba4f95cf32e4a39892650ffaac324de59c80ecf3e8b24a12064736f6c63430005100032",
  "source": "pragma solidity >=0.4.21 <0.7.0;\r\n\r\ncontract QuotationsChain {\r\n    uint256 public blockCount = 0;\r\n\r\n    struct Block {\r\n        uint256 id;\r\n        uint256 projectId;\r\n        string projectName;\r\n        uint256 contractorId;\r\n        string contractorName;\r\n        string status;\r\n        string fileHash;\r\n    }\r\n\r\n    mapping(uint256 => Block) public blocks;\r\n\r\n    event BlockCreated(uint256 id, uint256 projectId, string projectName);\r\n    event BlockUpdated(uint256 id);\r\n\r\n    constructor() public {\r\n        createBlock(1, \"Initial test project\", 1, \"Sachin\", \"\");\r\n    }\r\n\r\n    function createBlock(\r\n        uint256 _projectId,\r\n        string memory _projectName,\r\n        uint256 _contractorId,\r\n        string memory _contractorName,\r\n        string memory _fileHash\r\n    ) public {\r\n        blockCount++;\r\n        blocks[blockCount] = Block(\r\n            blockCount,\r\n            _projectId,\r\n            _projectName,\r\n            _contractorId,\r\n            _contractorName,\r\n            \"new\",\r\n            _fileHash\r\n        );\r\n        emit BlockCreated(blockCount, _projectId, _projectName);\r\n    }\r\n\r\n    function approve(uint256 _id) public {\r\n        blocks[_id].status = \"approved\";\r\n\r\n        emit BlockUpdated(_id);\r\n    }\r\n\r\n    function reject(uint256 _id) public {\r\n        blocks[_id].status = \"rejected\";\r\n\r\n        emit BlockUpdated(_id);\r\n    }\r\n}\r\n",
  "sourcePath": "E:\\projs\\mine\\st_projects\\govt-chains\\app\\truffle\\contracts\\QuotationsChain.sol",
  "compiler": {
    "name": "solc",
    "version": "0.5.16+commit.9c3226ce.Emscripten.clang"
  },
  "schemaVersion": "3.0.23",
  "updatedAt": "2020-07-26T19:44:27.833Z",
  "networkType": "ethereum",
  "devdoc": {
    "methods": {}
  },
  "userdoc": {
    "methods": {}
  }
}